{
  "contractName": "SolidityTest",
  "abi": [
    {
      "inputs": [],
      "stateMutability": "nonpayable",
      "type": "constructor"
    },
    {
      "inputs": [],
      "name": "Counter",
      "outputs": [
        {
          "internalType": "uint256",
          "name": "",
          "type": "uint256"
        }
      ],
      "stateMutability": "view",
      "type": "function",
      "constant": true
    },
    {
      "inputs": [],
      "name": "getOwner",
      "outputs": [
        {
          "internalType": "address",
          "name": "",
          "type": "address"
        }
      ],
      "stateMutability": "view",
      "type": "function",
      "constant": true
    },
    {
      "inputs": [
        {
          "internalType": "uint256",
          "name": "_input",
          "type": "uint256"
        }
      ],
      "name": "returnUint256",
      "outputs": [
        {
          "internalType": "uint256",
          "name": "",
          "type": "uint256"
        }
      ],
      "stateMutability": "pure",
      "type": "function",
      "constant": true
    },
    {
      "inputs": [
        {
          "internalType": "uint128",
          "name": "_input128Uint",
          "type": "uint128"
        }
      ],
      "name": "returnUint",
      "outputs": [
        {
          "internalType": "uint128",
          "name": "",
          "type": "uint128"
        }
      ],
      "stateMutability": "pure",
      "type": "function",
      "constant": true
    },
    {
      "inputs": [],
      "name": "transferEtherToOwner",
      "outputs": [],
      "stateMutability": "payable",
      "type": "function",
      "payable": true
    },
    {
      "inputs": [],
      "name": "getEthAmountOfOwner",
      "outputs": [
        {
          "internalType": "uint256",
          "name": "",
          "type": "uint256"
        }
      ],
      "stateMutability": "view",
      "type": "function",
      "constant": true
    },
    {
      "inputs": [
        {
          "internalType": "string",
          "name": "input",
          "type": "string"
        }
      ],
      "name": "returnKeccak256",
      "outputs": [
        {
          "internalType": "bytes32",
          "name": "",
          "type": "bytes32"
        }
      ],
      "stateMutability": "pure",
      "type": "function",
      "constant": true
    },
    {
      "inputs": [],
      "name": "incrementCounter",
      "outputs": [],
      "stateMutability": "nonpayable",
      "type": "function"
    },
    {
      "inputs": [
        {
          "internalType": "bool",
          "name": "_bool",
          "type": "bool"
        }
      ],
      "name": "getBoolValue",
      "outputs": [
        {
          "internalType": "bool",
          "name": "",
          "type": "bool"
        }
      ],
      "stateMutability": "pure",
      "type": "function",
      "constant": true
    },
    {
      "inputs": [],
      "name": "getArrayOfUint256",
      "outputs": [
        {
          "internalType": "uint256[]",
          "name": "_arrayOfUint256",
          "type": "uint256[]"
        }
      ],
      "stateMutability": "view",
      "type": "function",
      "constant": true
    },
    {
      "inputs": [],
      "name": "getArrayOfStructs",
      "outputs": [
        {
          "components": [
            {
              "internalType": "address",
              "name": "_address",
              "type": "address"
            },
            {
              "internalType": "uint256",
              "name": "_number",
              "type": "uint256"
            },
            {
              "internalType": "bytes32",
              "name": "_id",
              "type": "bytes32"
            }
          ],
          "internalType": "struct SolidityTest.TestStruct[]",
          "name": "_arrayOfStructs",
          "type": "tuple[]"
        }
      ],
      "stateMutability": "view",
      "type": "function",
      "constant": true
    },
    {
      "inputs": [
        {
          "internalType": "uint256[]",
          "name": "_arrayInput",
          "type": "uint256[]"
        }
      ],
      "name": "gerArrayAsInput",
      "outputs": [
        {
          "internalType": "uint256[]",
          "name": "_arrayResponse",
          "type": "uint256[]"
        }
      ],
      "stateMutability": "pure",
      "type": "function",
      "constant": true
    },
    {
      "inputs": [
        {
          "components": [
            {
              "internalType": "address",
              "name": "_address",
              "type": "address"
            },
            {
              "internalType": "uint256",
              "name": "_number",
              "type": "uint256"
            },
            {
              "internalType": "bytes32",
              "name": "_id",
              "type": "bytes32"
            }
          ],
          "internalType": "struct SolidityTest.TestStruct",
          "name": "_struct",
          "type": "tuple"
        }
      ],
      "name": "getStructAsParameter",
      "outputs": [
        {
          "components": [
            {
              "internalType": "address",
              "name": "_address",
              "type": "address"
            },
            {
              "internalType": "uint256",
              "name": "_number",
              "type": "uint256"
            },
            {
              "internalType": "bytes32",
              "name": "_id",
              "type": "bytes32"
            }
          ],
          "internalType": "struct SolidityTest.TestStruct",
          "name": "_structResponse",
          "type": "tuple"
        }
      ],
      "stateMutability": "pure",
      "type": "function",
      "constant": true
    },
    {
      "inputs": [],
      "name": "getArrayOfSctructs",
      "outputs": [
        {
          "components": [
            {
              "internalType": "address",
              "name": "_address",
              "type": "address"
            },
            {
              "internalType": "uint256",
              "name": "_number",
              "type": "uint256"
            },
            {
              "internalType": "bytes32",
              "name": "_id",
              "type": "bytes32"
            }
          ],
          "internalType": "struct SolidityTest.TestStruct[]",
          "name": "_structResponse",
          "type": "tuple[]"
        }
      ],
      "stateMutability": "view",
      "type": "function",
      "constant": true
    },
    {
      "inputs": [],
      "name": "getStringAsRespone",
      "outputs": [
        {
          "internalType": "string",
          "name": "",
          "type": "string"
        }
      ],
      "stateMutability": "pure",
      "type": "function",
      "constant": true
    },
    {
      "inputs": [
        {
          "internalType": "bytes32",
          "name": "_request",
          "type": "bytes32"
        }
      ],
      "name": "getBytes32AsResponse",
      "outputs": [
        {
          "internalType": "bytes32",
          "name": "response",
          "type": "bytes32"
        }
      ],
      "stateMutability": "pure",
      "type": "function",
      "constant": true
    }
  ],
  "bytecode": "0x608060405234801561001057600080fd5b50336000806101000a81548173ffffffffffffffffffffffffffffffffffffffff021916908373ffffffffffffffffffffffffffffffffffffffff16021790555060018080600181540180825580915050600190039060005260206000200160009091909190915055600160029080600181540180825580915050600190039060005260206000200160009091909190915055600160039080600181540180825580915050600190039060005260206000200160009091909190915055600260405180606001604052803373ffffffffffffffffffffffffffffffffffffffff168152602001678ac7230489e800008152602001600060405160200161011691906102b1565b60405160208183030381529060405280519060200120815250908060018154018082558091505060019003906000526020600020906003020160009091909190915060008201518160000160006101000a81548173ffffffffffffffffffffffffffffffffffffffff021916908373ffffffffffffffffffffffffffffffffffffffff16021790555060208201518160010155604082015181600201555050600260405180606001604052803373ffffffffffffffffffffffffffffffffffffffff168152602001678ac7230489e80000815260200160006040516020016101fe91906102b1565b60405160208183030381529060405280519060200120815250908060018154018082558091505060019003906000526020600020906003020160009091909190915060008201518160000160006101000a81548173ffffffffffffffffffffffffffffffffffffffff021916908373ffffffffffffffffffffffffffffffffffffffff160217905550602082015181600101556040820151816002015550506102fe565b6102ab816102cc565b82525050565b60006020820190506102c660008301846102a2565b92915050565b60006102d7826102de565b9050919050565b600073ffffffffffffffffffffffffffffffffffffffff82169050919050565b6111528061030d6000396000f3fe6080604052600436106100f35760003560e01c8063893d20e81161008a5780639e074abc116100595780639e074abc14610321578063a6ca2c8b1461035e578063b8af928614610389578063cb5f76b6146103c6576100f3565b8063893d20e8146102725780638f0fcf071461029d5780639779cdeb146102da5780639850b5f6146102e4576100f3565b80634eeca076116100c65780634eeca076146101b657806359adb2df146101e15780635a193a5d1461021e5780635b34b9661461025b576100f3565b8063067a3f94146100f857806319fbb993146101235780633b693e301461014e57806349ffb5141461018b575b600080fd5b34801561010457600080fd5b5061010d6103f1565b60405161011a9190610d7a565b60405180910390f35b34801561012f57600080fd5b50610138610449565b6040516101459190610d58565b60405180910390f35b34801561015a57600080fd5b50610175600480360381019061017091906109e5565b610512565b6040516101829190610d9c565b60405180910390f35b34801561019757600080fd5b506101a061051c565b6040516101ad9190610e2a565b60405180910390f35b3480156101c257600080fd5b506101cb61055c565b6040516101d89190610e2a565b60405180910390f35b3480156101ed57600080fd5b5061020860048036038101906102039190610af3565b610562565b6040516102159190610e2a565b60405180910390f35b34801561022a57600080fd5b5061024560048036038101906102409190610a78565b61056c565b6040516102529190610df4565b60405180910390f35b34801561026757600080fd5b5061027061058c565b005b34801561027e57600080fd5b506102876105a8565b6040516102949190610d3d565b60405180910390f35b3480156102a957600080fd5b506102c460048036038101906102bf91906109a0565b6105d1565b6040516102d19190610d7a565b60405180910390f35b6102e261061d565b005b3480156102f057600080fd5b5061030b60048036038101906103069190610aca565b610686565b6040516103189190610e0f565b60405180910390f35b34801561032d57600080fd5b5061034860048036038101906103439190610a0e565b610690565b6040516103559190610db7565b60405180910390f35b34801561036a57600080fd5b5061037361069a565b6040516103809190610d58565b60405180910390f35b34801561039557600080fd5b506103b060048036038101906103ab9190610a37565b610763565b6040516103bd9190610db7565b60405180910390f35b3480156103d257600080fd5b506103db610793565b6040516103e89190610dd2565b60405180910390f35b6060600180548060200260200160405190810160405280929190818152602001828054801561043f57602002820191906000526020600020905b81548152602001906001019080831161042b575b5050505050905090565b60606002805480602002602001604051908101604052809291908181526020016000905b8282101561050957838290600052602060002090600302016040518060600160405290816000820160009054906101000a900473ffffffffffffffffffffffffffffffffffffffff1673ffffffffffffffffffffffffffffffffffffffff1673ffffffffffffffffffffffffffffffffffffffff168152602001600182015481526020016002820154815250508152602001906001019061046d565b50505050905090565b6000819050919050565b60008060009054906101000a900473ffffffffffffffffffffffffffffffffffffffff1673ffffffffffffffffffffffffffffffffffffffff1631905090565b60035481565b6000819050919050565b6105746107d0565b818036038101906105859190610aa1565b9050919050565b60016003600082825461059f9190610f34565b92505081905550565b60008060009054906101000a900473ffffffffffffffffffffffffffffffffffffffff16905090565b6060828280806020026020016040519081016040528093929190818152602001838360200280828437600081840152601f19601f82011690508083019250505050505050905092915050565b60008054906101000a900473ffffffffffffffffffffffffffffffffffffffff1673ffffffffffffffffffffffffffffffffffffffff166108fc349081150290604051600060405180830381858888f19350505050158015610683573d6000803e3d6000fd5b50565b6000819050919050565b6000819050919050565b60606002805480602002602001604051908101604052809291908181526020016000905b8282101561075a57838290600052602060002090600302016040518060600160405290816000820160009054906101000a900473ffffffffffffffffffffffffffffffffffffffff1673ffffffffffffffffffffffffffffffffffffffff1673ffffffffffffffffffffffffffffffffffffffff16815260200160018201548152602001600282015481525050815260200190600101906106be565b50505050905090565b6000816040516020016107769190610dd2565b604051602081830303815290604052805190602001209050919050565b60606040518060400160405280601281526020017f526573706f6e736520617320537472696e670000000000000000000000000000815250905090565b6040518060600160405280600073ffffffffffffffffffffffffffffffffffffffff16815260200160008152602001600080191681525090565b600061081d61081884610e76565b610e45565b90508281526020810184848401111561083557600080fd5b610840848285610ff8565b509392505050565b600081359050610857816110a9565b92915050565b60008083601f84011261086f57600080fd5b8235905067ffffffffffffffff81111561088857600080fd5b6020830191508360208202830111156108a057600080fd5b9250929050565b6000813590506108b6816110c0565b92915050565b6000813590506108cb816110d7565b92915050565b600082601f8301126108e257600080fd5b81356108f284826020860161080a565b91505092915050565b60006060828403121561090d57600080fd5b81905092915050565b60006060828403121561092857600080fd5b6109326060610e45565b9050600061094284828501610848565b60008301525060206109568482850161098b565b602083015250604061096a848285016108bc565b60408301525092915050565b600081359050610985816110ee565b92915050565b60008135905061099a81611105565b92915050565b600080602083850312156109b357600080fd5b600083013567ffffffffffffffff8111156109cd57600080fd5b6109d98582860161085d565b92509250509250929050565b6000602082840312156109f757600080fd5b6000610a05848285016108a7565b91505092915050565b600060208284031215610a2057600080fd5b6000610a2e848285016108bc565b91505092915050565b600060208284031215610a4957600080fd5b600082013567ffffffffffffffff811115610a6357600080fd5b610a6f848285016108d1565b91505092915050565b600060608284031215610a8a57600080fd5b6000610a98848285016108fb565b91505092915050565b600060608284031215610ab357600080fd5b6000610ac184828501610916565b91505092915050565b600060208284031215610adc57600080fd5b6000610aea84828501610976565b91505092915050565b600060208284031215610b0557600080fd5b6000610b138482850161098b565b91505092915050565b6000610b288383610c8c565b60608301905092915050565b6000610b408383610d1f565b60208301905092915050565b610b5581610f8a565b82525050565b610b6481610f8a565b82525050565b6000610b7582610ec6565b610b7f8185610f01565b9350610b8a83610ea6565b8060005b83811015610bbb578151610ba28882610b1c565b9750610bad83610ee7565b925050600181019050610b8e565b5085935050505092915050565b6000610bd382610ed1565b610bdd8185610f12565b9350610be883610eb6565b8060005b83811015610c19578151610c008882610b34565b9750610c0b83610ef4565b925050600181019050610bec565b5085935050505092915050565b610c2f81610f9c565b82525050565b610c3e81610fa8565b82525050565b610c4d81610fa8565b82525050565b6000610c5e82610edc565b610c688185610f23565b9350610c78818560208601611007565b610c8181611098565b840191505092915050565b606082016000820151610ca26000850182610b4c565b506020820151610cb56020850182610d1f565b506040820151610cc86040850182610c35565b50505050565b606082016000820151610ce46000850182610b4c565b506020820151610cf76020850182610d1f565b506040820151610d0a6040850182610c35565b50505050565b610d1981610fb2565b82525050565b610d2881610fee565b82525050565b610d3781610fee565b82525050565b6000602082019050610d526000830184610b5b565b92915050565b60006020820190508181036000830152610d728184610b6a565b905092915050565b60006020820190508181036000830152610d948184610bc8565b905092915050565b6000602082019050610db16000830184610c26565b92915050565b6000602082019050610dcc6000830184610c44565b92915050565b60006020820190508181036000830152610dec8184610c53565b905092915050565b6000606082019050610e096000830184610cce565b92915050565b6000602082019050610e246000830184610d10565b92915050565b6000602082019050610e3f6000830184610d2e565b92915050565b6000604051905081810181811067ffffffffffffffff82111715610e6c57610e6b611069565b5b8060405250919050565b600067ffffffffffffffff821115610e9157610e90611069565b5b601f19601f8301169050602081019050919050565b6000819050602082019050919050565b6000819050602082019050919050565b600081519050919050565b600081519050919050565b600081519050919050565b6000602082019050919050565b6000602082019050919050565b600082825260208201905092915050565b600082825260208201905092915050565b600082825260208201905092915050565b6000610f3f82610fee565b9150610f4a83610fee565b9250827fffffffffffffffffffffffffffffffffffffffffffffffffffffffffffffffff03821115610f7f57610f7e61103a565b5b828201905092915050565b6000610f9582610fce565b9050919050565b60008115159050919050565b6000819050919050565b60006fffffffffffffffffffffffffffffffff82169050919050565b600073ffffffffffffffffffffffffffffffffffffffff82169050919050565b6000819050919050565b82818337600083830152505050565b60005b8381101561102557808201518184015260208101905061100a565b83811115611034576000848401525b50505050565b7f4e487b7100000000000000000000000000000000000000000000000000000000600052601160045260246000fd5b7f4e487b7100000000000000000000000000000000000000000000000000000000600052604160045260246000fd5b6000601f19601f8301169050919050565b6110b281610f8a565b81146110bd57600080fd5b50565b6110c981610f9c565b81146110d457600080fd5b50565b6110e081610fa8565b81146110eb57600080fd5b50565b6110f781610fb2565b811461110257600080fd5b50565b61110e81610fee565b811461111957600080fd5b5056fea2646970667358221220df4e793039fae976e68d912ae3d704c63cafb6813da7b2ff517200c18b9f0f0064736f6c63430008000033",
  "immutableReferences": {},
  "source": "pragma solidity ^0.8.0;\r\n\r\ncontract SolidityTest {\r\n    address payable private _owner;\r\n    uint256[] private _arrayWithUint256;\r\n\r\n    TestStruct[] private _testStructArray;\r\n\r\n    struct TestStruct {\r\n        address _address;\r\n        uint256 _number;\r\n        bytes32 _id;\r\n    }\r\n\r\n    constructor() {\r\n        _owner = payable(msg.sender);\r\n        _arrayWithUint256.push(1);\r\n        _arrayWithUint256.push(2);\r\n        _arrayWithUint256.push(3);\r\n        _testStructArray.push(\r\n            TestStruct(\r\n                msg.sender,\r\n                10 * 10**18,\r\n                keccak256(abi.encode(address(0)))\r\n            )\r\n        );\r\n        _testStructArray.push(\r\n            TestStruct(\r\n                msg.sender,\r\n                10 * 10**18,\r\n                keccak256(abi.encode(address(0)))\r\n            )\r\n        );\r\n    }\r\n\r\n    uint256 public Counter;\r\n\r\n    function getOwner() public view returns (address) {\r\n        return _owner;\r\n    }\r\n\r\n    function returnUint256(uint256 _input) public pure returns (uint256) {\r\n        return _input;\r\n    }\r\n\r\n    function returnUint(uint128 _input128Uint) public pure returns (uint128) {\r\n        return _input128Uint;\r\n    }\r\n\r\n    function transferEtherToOwner() public payable {\r\n        _owner.transfer(msg.value);\r\n    }\r\n\r\n    function getEthAmountOfOwner() public view returns (uint256) {\r\n        return address(_owner).balance;\r\n    }\r\n\r\n    function returnKeccak256(string memory input)\r\n        public\r\n        pure\r\n        returns (bytes32)\r\n    {\r\n        return keccak256(abi.encode(input));\r\n    }\r\n\r\n    function incrementCounter() public {\r\n        Counter += 1;\r\n    }\r\n\r\n    function getBoolValue(bool _bool) public pure returns (bool) {\r\n        return _bool;\r\n    }\r\n\r\n    function getArrayOfUint256()\r\n        public\r\n        view\r\n        returns (uint256[] memory _arrayOfUint256)\r\n    {\r\n        return _arrayWithUint256;\r\n    }\r\n\r\n    function getArrayOfStructs()\r\n        public\r\n        view\r\n        returns (TestStruct[] memory _arrayOfStructs)\r\n    {\r\n        return _testStructArray;\r\n    }\r\n\r\n    function gerArrayAsInput(uint256[] calldata _arrayInput)\r\n        public\r\n        pure\r\n        returns (uint256[] memory _arrayResponse)\r\n    {\r\n        return _arrayInput;\r\n    }\r\n\r\n    function getStructAsParameter(TestStruct calldata _struct)\r\n        public\r\n        pure\r\n        returns (TestStruct memory _structResponse)\r\n    {\r\n        return _struct;\r\n    }\r\n\r\n    function getArrayOfSctructs()\r\n        public\r\n        view\r\n        returns (TestStruct[] memory _structResponse)\r\n    {\r\n        return _testStructArray;\r\n    }\r\n\r\n    function getStringAsRespone() public pure returns (string memory) {\r\n        return \"Response as String\";\r\n    }\r\n\r\n    function getBytes32AsResponse(bytes32 _request)\r\n        public\r\n        pure\r\n        returns (bytes32 response)\r\n    {\r\n        return _request;\r\n    }\r\n}\r\n",
  "sourcePath": "D:\\Documents\\Dev\\Repositories\\ethereum-interaction-tool\\EthereumTools\\EthereumTools\\src\\EthereumSmartContracts\\smartcontract-test\\contracts\\solidity-test.sol",
  "compiler": {
    "name": "solc",
    "version": "0.8.0+commit.c7dfd78e.Emscripten.clang"
  },
  "schemaVersion": "3.4.3",
  "updatedAt": "2022-03-29T11:43:27.921Z",
  "networkType": "ethereum",
  "devdoc": {
    "kind": "dev",
    "methods": {},
    "version": 1
  },
  "userdoc": {
    "kind": "user",
    "methods": {},
    "version": 1
  }
}