{
  "contractName": "SolidityTest",
  "abi": [
    {
      "inputs": [],
      "stateMutability": "nonpayable",
      "type": "constructor"
    },
    {
      "inputs": [],
      "name": "Counter",
      "outputs": [
        {
          "internalType": "uint256",
          "name": "",
          "type": "uint256"
        }
      ],
      "stateMutability": "view",
      "type": "function",
      "constant": true
    },
    {
      "inputs": [],
      "name": "getOwner",
      "outputs": [
        {
          "internalType": "address",
          "name": "",
          "type": "address"
        }
      ],
      "stateMutability": "view",
      "type": "function",
      "constant": true
    },
    {
      "inputs": [
        {
          "internalType": "uint256",
          "name": "_input",
          "type": "uint256"
        }
      ],
      "name": "returnUint256",
      "outputs": [
        {
          "internalType": "uint256",
          "name": "",
          "type": "uint256"
        }
      ],
      "stateMutability": "pure",
      "type": "function",
      "constant": true
    },
    {
      "inputs": [
        {
          "internalType": "uint128",
          "name": "_input128Uint",
          "type": "uint128"
        }
      ],
      "name": "returnUint",
      "outputs": [
        {
          "internalType": "uint128",
          "name": "",
          "type": "uint128"
        }
      ],
      "stateMutability": "pure",
      "type": "function",
      "constant": true
    },
    {
      "inputs": [],
      "name": "transferEtherToOwner",
      "outputs": [],
      "stateMutability": "payable",
      "type": "function",
      "payable": true
    },
    {
      "inputs": [],
      "name": "getEthAmountOfOwner",
      "outputs": [
        {
          "internalType": "uint256",
          "name": "",
          "type": "uint256"
        }
      ],
      "stateMutability": "view",
      "type": "function",
      "constant": true
    },
    {
      "inputs": [
        {
          "internalType": "string",
          "name": "input",
          "type": "string"
        }
      ],
      "name": "returnKeccak256",
      "outputs": [
        {
          "internalType": "bytes32",
          "name": "",
          "type": "bytes32"
        }
      ],
      "stateMutability": "pure",
      "type": "function",
      "constant": true
    },
    {
      "inputs": [],
      "name": "incrementCounter",
      "outputs": [],
      "stateMutability": "nonpayable",
      "type": "function"
    },
    {
      "inputs": [
        {
          "internalType": "bool",
          "name": "_bool",
          "type": "bool"
        }
      ],
      "name": "getBoolValue",
      "outputs": [
        {
          "internalType": "bool",
          "name": "",
          "type": "bool"
        }
      ],
      "stateMutability": "pure",
      "type": "function",
      "constant": true
    },
    {
      "inputs": [],
      "name": "getArrayOfUint256",
      "outputs": [
        {
          "internalType": "uint256[]",
          "name": "_arrayOfUint256",
          "type": "uint256[]"
        }
      ],
      "stateMutability": "view",
      "type": "function",
      "constant": true
    },
    {
      "inputs": [],
      "name": "getArrayOfStructs",
      "outputs": [
        {
          "components": [
            {
              "internalType": "address",
              "name": "_address",
              "type": "address"
            },
            {
              "internalType": "uint256",
              "name": "_number",
              "type": "uint256"
            },
            {
              "internalType": "bytes32",
              "name": "_id",
              "type": "bytes32"
            }
          ],
          "internalType": "struct SolidityTest.TestStruct[]",
          "name": "_arrayOfStructs",
          "type": "tuple[]"
        }
      ],
      "stateMutability": "view",
      "type": "function",
      "constant": true
    },
    {
      "inputs": [
        {
          "internalType": "uint256[]",
          "name": "_arrayInput",
          "type": "uint256[]"
        }
      ],
      "name": "getArrayAsInput",
      "outputs": [
        {
          "internalType": "uint256[]",
          "name": "_arrayResponse",
          "type": "uint256[]"
        }
      ],
      "stateMutability": "pure",
      "type": "function",
      "constant": true
    },
    {
      "inputs": [
        {
          "components": [
            {
              "internalType": "address",
              "name": "_address",
              "type": "address"
            },
            {
              "internalType": "uint256",
              "name": "_number",
              "type": "uint256"
            },
            {
              "internalType": "bytes32",
              "name": "_id",
              "type": "bytes32"
            }
          ],
          "internalType": "struct SolidityTest.TestStruct",
          "name": "_struct",
          "type": "tuple"
        }
      ],
      "name": "getStructAsParameter",
      "outputs": [
        {
          "components": [
            {
              "internalType": "address",
              "name": "_address",
              "type": "address"
            },
            {
              "internalType": "uint256",
              "name": "_number",
              "type": "uint256"
            },
            {
              "internalType": "bytes32",
              "name": "_id",
              "type": "bytes32"
            }
          ],
          "internalType": "struct SolidityTest.TestStruct",
          "name": "_structResponse",
          "type": "tuple"
        }
      ],
      "stateMutability": "pure",
      "type": "function",
      "constant": true
    },
    {
      "inputs": [],
      "name": "getArrayOfSctructs",
      "outputs": [
        {
          "components": [
            {
              "internalType": "address",
              "name": "_address",
              "type": "address"
            },
            {
              "internalType": "uint256",
              "name": "_number",
              "type": "uint256"
            },
            {
              "internalType": "bytes32",
              "name": "_id",
              "type": "bytes32"
            }
          ],
          "internalType": "struct SolidityTest.TestStruct[]",
          "name": "_structResponse",
          "type": "tuple[]"
        }
      ],
      "stateMutability": "view",
      "type": "function",
      "constant": true
    },
    {
      "inputs": [],
      "name": "getStringAsResponse",
      "outputs": [
        {
          "internalType": "string",
          "name": "",
          "type": "string"
        }
      ],
      "stateMutability": "pure",
      "type": "function",
      "constant": true
    },
    {
      "inputs": [
        {
          "internalType": "bytes32",
          "name": "_request",
          "type": "bytes32"
        }
      ],
      "name": "getBytes32AsResponse",
      "outputs": [
        {
          "internalType": "bytes32",
          "name": "response",
          "type": "bytes32"
        }
      ],
      "stateMutability": "pure",
      "type": "function",
      "constant": true
    },
    {
      "inputs": [],
      "name": "getStruct",
      "outputs": [
        {
          "components": [
            {
              "internalType": "address",
              "name": "_address",
              "type": "address"
            },
            {
              "internalType": "uint256",
              "name": "_number",
              "type": "uint256"
            },
            {
              "internalType": "bytes32",
              "name": "_id",
              "type": "bytes32"
            }
          ],
          "internalType": "struct SolidityTest.TestStruct",
          "name": "testStruct",
          "type": "tuple"
        }
      ],
      "stateMutability": "view",
      "type": "function",
      "constant": true
    },
    {
      "inputs": [],
      "name": "getMultipleResponses",
      "outputs": [
        {
          "internalType": "uint256",
          "name": "",
          "type": "uint256"
        },
        {
          "internalType": "address",
          "name": "",
          "type": "address"
        },
        {
          "internalType": "string",
          "name": "",
          "type": "string"
        }
      ],
      "stateMutability": "view",
      "type": "function",
      "constant": true
    },
    {
      "inputs": [],
      "name": "returnMixedTupple",
      "outputs": [
        {
          "internalType": "uint256",
          "name": "",
          "type": "uint256"
        },
        {
          "components": [
            {
              "internalType": "address",
              "name": "_address",
              "type": "address"
            },
            {
              "internalType": "uint256",
              "name": "_number",
              "type": "uint256"
            },
            {
              "internalType": "bytes32",
              "name": "_id",
              "type": "bytes32"
            }
          ],
          "internalType": "struct SolidityTest.TestStruct",
          "name": "",
          "type": "tuple"
        },
        {
          "internalType": "address",
          "name": "",
          "type": "address"
        }
      ],
      "stateMutability": "view",
      "type": "function",
      "constant": true
    }
  ],
  "bytecode": "0x60806040523480156200001157600080fd5b50336000806101000a81548173ffffffffffffffffffffffffffffffffffffffff021916908373ffffffffffffffffffffffffffffffffffffffff16021790555060018080600181540180825580915050600190039060005260206000200160009091909190915055600160029080600181540180825580915050600190039060005260206000200160009091909190915055600160039080600181540180825580915050600190039060005260206000200160009091909190915055600260405180606001604052803373ffffffffffffffffffffffffffffffffffffffff168152602001678ac7230489e80000815260200160006040516020016200011991906200037b565b60405160208183030381529060405280519060200120815250908060018154018082558091505060019003906000526020600020906003020160009091909190915060008201518160000160006101000a81548173ffffffffffffffffffffffffffffffffffffffff021916908373ffffffffffffffffffffffffffffffffffffffff16021790555060208201518160010155604082015181600201555050600260405180606001604052803373ffffffffffffffffffffffffffffffffffffffff168152602001678ac7230489e80000815260200160006040516020016200020391906200037b565b60405160208183030381529060405280519060200120815250908060018154018082558091505060019003906000526020600020906003020160009091909190915060008201518160000160006101000a81548173ffffffffffffffffffffffffffffffffffffffff021916908373ffffffffffffffffffffffffffffffffffffffff1602179055506020820151816001015560408201518160020155505060405180606001604052803373ffffffffffffffffffffffffffffffffffffffff168152602001678ac7230489e8000081526020016000604051602001620002eb91906200037b565b60405160208183030381529060405280519060200120815250600360008201518160000160006101000a81548173ffffffffffffffffffffffffffffffffffffffff021916908373ffffffffffffffffffffffffffffffffffffffff1602179055506020820151816001015560408201518160020155905050620003cc565b620003758162000398565b82525050565b60006020820190506200039260008301846200036a565b92915050565b6000620003a582620003ac565b9050919050565b600073ffffffffffffffffffffffffffffffffffffffff82169050919050565b6113f080620003dc6000396000f3fe6080604052600436106101135760003560e01c80635b34b966116100a0578063a6ca2c8b11610064578063a6ca2c8b146103a9578063af834d37146103d4578063b8af9286146103ff578063c5a859b81461043c578063f3e0b7321461046957610113565b80635b34b966146102e3578063893d20e8146102fa5780639779cdeb146103255780639850b5f61461032f5780639e074abc1461036c57610113565b80633b693e30116100e75780633b693e30146101d657806349ffb514146102135780634eeca0761461023e57806359adb2df146102695780635a193a5d146102a657610113565b80623ce05214610118578063067a3f941461015557806309b1b3f21461018057806319fbb993146101ab575b600080fd5b34801561012457600080fd5b5061013f600480360381019061013a9190610bc9565b610496565b60405161014c9190610fa3565b60405180910390f35b34801561016157600080fd5b5061016a6104e2565b6040516101779190610fa3565b60405180910390f35b34801561018c57600080fd5b5061019561053a565b6040516101a2919061101d565b60405180910390f35b3480156101b757600080fd5b506101c06105be565b6040516101cd9190610f81565b60405180910390f35b3480156101e257600080fd5b506101fd60048036038101906101f89190610c0e565b610687565b60405161020a9190610fc5565b60405180910390f35b34801561021f57600080fd5b50610228610691565b6040516102359190611053565b60405180910390f35b34801561024a57600080fd5b506102536106d1565b6040516102609190611053565b60405180910390f35b34801561027557600080fd5b50610290600480360381019061028b9190610d1c565b6106d7565b60405161029d9190611053565b60405180910390f35b3480156102b257600080fd5b506102cd60048036038101906102c89190610ca1565b6106e1565b6040516102da919061101d565b60405180910390f35b3480156102ef57600080fd5b506102f8610701565b005b34801561030657600080fd5b5061030f61071d565b60405161031c9190610f66565b60405180910390f35b61032d610746565b005b34801561033b57600080fd5b5061035660048036038101906103519190610cf3565b6107af565b6040516103639190611038565b60405180910390f35b34801561037857600080fd5b50610393600480360381019061038e9190610c37565b6107b9565b6040516103a09190610fe0565b60405180910390f35b3480156103b557600080fd5b506103be6107c3565b6040516103cb9190610f81565b60405180910390f35b3480156103e057600080fd5b506103e961088c565b6040516103f69190610ffb565b60405180910390f35b34801561040b57600080fd5b5061042660048036038101906104219190610c60565b6108c9565b6040516104339190610fe0565b60405180910390f35b34801561044857600080fd5b506104516108f9565b6040516104609392919061106e565b60405180910390f35b34801561047557600080fd5b5061047e610944565b60405161048d939291906110ac565b60405180910390f35b6060828280806020026020016040519081016040528093929190818152602001838360200280828437600081840152601f19601f82011690508083019250505050505050905092915050565b6060600180548060200260200160405190810160405280929190818152602001828054801561053057602002820191906000526020600020905b81548152602001906001019080831161051c575b5050505050905090565b6105426109f9565b60036040518060600160405290816000820160009054906101000a900473ffffffffffffffffffffffffffffffffffffffff1673ffffffffffffffffffffffffffffffffffffffff1673ffffffffffffffffffffffffffffffffffffffff16815260200160018201548152602001600282015481525050905090565b60606002805480602002602001604051908101604052809291908181526020016000905b8282101561067e57838290600052602060002090600302016040518060600160405290816000820160009054906101000a900473ffffffffffffffffffffffffffffffffffffffff1673ffffffffffffffffffffffffffffffffffffffff1673ffffffffffffffffffffffffffffffffffffffff16815260200160018201548152602001600282015481525050815260200190600101906105e2565b50505050905090565b6000819050919050565b60008060009054906101000a900473ffffffffffffffffffffffffffffffffffffffff1673ffffffffffffffffffffffffffffffffffffffff1631905090565b60065481565b6000819050919050565b6106e96109f9565b818036038101906106fa9190610cca565b9050919050565b60016006600082825461071491906111d2565b92505081905550565b60008060009054906101000a900473ffffffffffffffffffffffffffffffffffffffff16905090565b60008054906101000a900473ffffffffffffffffffffffffffffffffffffffff1673ffffffffffffffffffffffffffffffffffffffff166108fc349081150290604051600060405180830381858888f193505050501580156107ac573d6000803e3d6000fd5b50565b6000819050919050565b6000819050919050565b60606002805480602002602001604051908101604052809291908181526020016000905b8282101561088357838290600052602060002090600302016040518060600160405290816000820160009054906101000a900473ffffffffffffffffffffffffffffffffffffffff1673ffffffffffffffffffffffffffffffffffffffff1673ffffffffffffffffffffffffffffffffffffffff16815260200160018201548152602001600282015481525050815260200190600101906107e7565b50505050905090565b60606040518060400160405280601281526020017f526573706f6e736520617320537472696e670000000000000000000000000000815250905090565b6000816040516020016108dc9190610ffb565b604051602081830303815290604052805190602001209050919050565b6000806060620186a0336040518060400160405280600b81526020017f5465737420537472696e67000000000000000000000000000000000000000000815250925092509250909192565b600061094e6109f9565b60006109d0600360008054906101000a900473ffffffffffffffffffffffffffffffffffffffff16816040518060600160405290816000820160009054906101000a900473ffffffffffffffffffffffffffffffffffffffff1673ffffffffffffffffffffffffffffffffffffffff1673ffffffffffffffffffffffffffffffffffffffff168152602001600182015481526020016002820154815250509150925092509250909192565b6040518060600160405280600073ffffffffffffffffffffffffffffffffffffffff16815260200160008152602001600080191681525090565b6000610a46610a4184611114565b6110e3565b905082815260208101848484011115610a5e57600080fd5b610a69848285611296565b509392505050565b600081359050610a8081611347565b92915050565b60008083601f840112610a9857600080fd5b8235905067ffffffffffffffff811115610ab157600080fd5b602083019150836020820283011115610ac957600080fd5b9250929050565b600081359050610adf8161135e565b92915050565b600081359050610af481611375565b92915050565b600082601f830112610b0b57600080fd5b8135610b1b848260208601610a33565b91505092915050565b600060608284031215610b3657600080fd5b81905092915050565b600060608284031215610b5157600080fd5b610b5b60606110e3565b90506000610b6b84828501610a71565b6000830152506020610b7f84828501610bb4565b6020830152506040610b9384828501610ae5565b60408301525092915050565b600081359050610bae8161138c565b92915050565b600081359050610bc3816113a3565b92915050565b60008060208385031215610bdc57600080fd5b600083013567ffffffffffffffff811115610bf657600080fd5b610c0285828601610a86565b92509250509250929050565b600060208284031215610c2057600080fd5b6000610c2e84828501610ad0565b91505092915050565b600060208284031215610c4957600080fd5b6000610c5784828501610ae5565b91505092915050565b600060208284031215610c7257600080fd5b600082013567ffffffffffffffff811115610c8c57600080fd5b610c9884828501610afa565b91505092915050565b600060608284031215610cb357600080fd5b6000610cc184828501610b24565b91505092915050565b600060608284031215610cdc57600080fd5b6000610cea84828501610b3f565b91505092915050565b600060208284031215610d0557600080fd5b6000610d1384828501610b9f565b91505092915050565b600060208284031215610d2e57600080fd5b6000610d3c84828501610bb4565b91505092915050565b6000610d518383610eb5565b60608301905092915050565b6000610d698383610f48565b60208301905092915050565b610d7e81611228565b82525050565b610d8d81611228565b82525050565b6000610d9e82611164565b610da8818561119f565b9350610db383611144565b8060005b83811015610de4578151610dcb8882610d45565b9750610dd683611185565b925050600181019050610db7565b5085935050505092915050565b6000610dfc8261116f565b610e0681856111b0565b9350610e1183611154565b8060005b83811015610e42578151610e298882610d5d565b9750610e3483611192565b925050600181019050610e15565b5085935050505092915050565b610e588161123a565b82525050565b610e6781611246565b82525050565b610e7681611246565b82525050565b6000610e878261117a565b610e9181856111c1565b9350610ea18185602086016112a5565b610eaa81611336565b840191505092915050565b606082016000820151610ecb6000850182610d75565b506020820151610ede6020850182610f48565b506040820151610ef16040850182610e5e565b50505050565b606082016000820151610f0d6000850182610d75565b506020820151610f206020850182610f48565b506040820151610f336040850182610e5e565b50505050565b610f4281611250565b82525050565b610f518161128c565b82525050565b610f608161128c565b82525050565b6000602082019050610f7b6000830184610d84565b92915050565b60006020820190508181036000830152610f9b8184610d93565b905092915050565b60006020820190508181036000830152610fbd8184610df1565b905092915050565b6000602082019050610fda6000830184610e4f565b92915050565b6000602082019050610ff56000830184610e6d565b92915050565b600060208201905081810360008301526110158184610e7c565b905092915050565b60006060820190506110326000830184610ef7565b92915050565b600060208201905061104d6000830184610f39565b92915050565b60006020820190506110686000830184610f57565b92915050565b60006060820190506110836000830186610f57565b6110906020830185610d84565b81810360408301526110a28184610e7c565b9050949350505050565b600060a0820190506110c16000830186610f57565b6110ce6020830185610ef7565b6110db6080830184610d84565b949350505050565b6000604051905081810181811067ffffffffffffffff8211171561110a57611109611307565b5b8060405250919050565b600067ffffffffffffffff82111561112f5761112e611307565b5b601f19601f8301169050602081019050919050565b6000819050602082019050919050565b6000819050602082019050919050565b600081519050919050565b600081519050919050565b600081519050919050565b6000602082019050919050565b6000602082019050919050565b600082825260208201905092915050565b600082825260208201905092915050565b600082825260208201905092915050565b60006111dd8261128c565b91506111e88361128c565b9250827fffffffffffffffffffffffffffffffffffffffffffffffffffffffffffffffff0382111561121d5761121c6112d8565b5b828201905092915050565b60006112338261126c565b9050919050565b60008115159050919050565b6000819050919050565b60006fffffffffffffffffffffffffffffffff82169050919050565b600073ffffffffffffffffffffffffffffffffffffffff82169050919050565b6000819050919050565b82818337600083830152505050565b60005b838110156112c35780820151818401526020810190506112a8565b838111156112d2576000848401525b50505050565b7f4e487b7100000000000000000000000000000000000000000000000000000000600052601160045260246000fd5b7f4e487b7100000000000000000000000000000000000000000000000000000000600052604160045260246000fd5b6000601f19601f8301169050919050565b61135081611228565b811461135b57600080fd5b50565b6113678161123a565b811461137257600080fd5b50565b61137e81611246565b811461138957600080fd5b50565b61139581611250565b81146113a057600080fd5b50565b6113ac8161128c565b81146113b757600080fd5b5056fea26469706673582212206fa98c44c13fbaa35d173f687397180220c76c5977a8302936dbe256dc042d8c64736f6c63430008000033",
  "immutableReferences": {},
  "source": "pragma solidity ^0.8.0;\r\n\r\ncontract SolidityTest {\r\n    address payable private _owner;\r\n    uint256[] private _arrayWithUint256;\r\n\r\n    TestStruct[] private _testStructArray;\r\n    TestStruct private _testStruct;\r\n    struct TestStruct {\r\n        address _address;\r\n        uint256 _number;\r\n        bytes32 _id;\r\n    }\r\n\r\n    constructor() {\r\n        _owner = payable(msg.sender);\r\n        _arrayWithUint256.push(1);\r\n        _arrayWithUint256.push(2);\r\n        _arrayWithUint256.push(3);\r\n        _testStructArray.push(\r\n            TestStruct(\r\n                msg.sender,\r\n                10 * 10**18,\r\n                keccak256(abi.encode(address(0)))\r\n            )\r\n        );\r\n        _testStructArray.push(\r\n            TestStruct(\r\n                msg.sender,\r\n                10 * 10**18,\r\n                keccak256(abi.encode(address(0)))\r\n            )\r\n        );\r\n        _testStruct = TestStruct(\r\n            msg.sender,\r\n            10 * 10**18,\r\n            keccak256(abi.encode(address(0)))\r\n        );\r\n    }\r\n\r\n    uint256 public Counter;\r\n\r\n    function getOwner() public view returns (address) {\r\n        return _owner;\r\n    }\r\n\r\n    function returnUint256(uint256 _input) public pure returns (uint256) {\r\n        return _input;\r\n    }\r\n\r\n    function returnUint(uint128 _input128Uint) public pure returns (uint128) {\r\n        return _input128Uint;\r\n    }\r\n\r\n    function transferEtherToOwner() public payable {\r\n        _owner.transfer(msg.value);\r\n    }\r\n\r\n    function getEthAmountOfOwner() public view returns (uint256) {\r\n        return address(_owner).balance;\r\n    }\r\n\r\n    function returnKeccak256(string memory input)\r\n        public\r\n        pure\r\n        returns (bytes32)\r\n    {\r\n        return keccak256(abi.encode(input));\r\n    }\r\n\r\n    function incrementCounter() public {\r\n        Counter += 1;\r\n    }\r\n\r\n    function getBoolValue(bool _bool) public pure returns (bool) {\r\n        return _bool;\r\n    }\r\n\r\n    function getArrayOfUint256()\r\n        public\r\n        view\r\n        returns (uint256[] memory _arrayOfUint256)\r\n    {\r\n        return _arrayWithUint256;\r\n    }\r\n\r\n    function getArrayOfStructs()\r\n        public\r\n        view\r\n        returns (TestStruct[] memory _arrayOfStructs)\r\n    {\r\n        return _testStructArray;\r\n    }\r\n\r\n    function getArrayAsInput(uint256[] calldata _arrayInput)\r\n        public\r\n        pure\r\n        returns (uint256[] memory _arrayResponse)\r\n    {\r\n        return _arrayInput;\r\n    }\r\n\r\n    function getStructAsParameter(TestStruct calldata _struct)\r\n        public\r\n        pure\r\n        returns (TestStruct memory _structResponse)\r\n    {\r\n        return _struct;\r\n    }\r\n\r\n    function getArrayOfSctructs()\r\n        public\r\n        view\r\n        returns (TestStruct[] memory _structResponse)\r\n    {\r\n        return _testStructArray;\r\n    }\r\n\r\n    function getStringAsResponse() public pure returns (string memory) {\r\n        return \"Response as String\";\r\n    }\r\n\r\n    function getBytes32AsResponse(bytes32 _request)\r\n        public\r\n        pure\r\n        returns (bytes32 response)\r\n    {\r\n        return _request;\r\n    }\r\n\r\n    function getStruct() public view returns (TestStruct memory testStruct) {\r\n        return _testStruct;\r\n    }\r\n\r\n    function getMultipleResponses()\r\n        public\r\n        view\r\n        returns (\r\n            uint256,\r\n            address,\r\n            string memory\r\n        )\r\n    {\r\n        return (100000, msg.sender, \"Test String\");\r\n    }\r\n\r\n    function returnMixedTupple()\r\n        public\r\n        view\r\n        returns (\r\n            uint256,\r\n            TestStruct memory,\r\n            address\r\n        )\r\n    {\r\n        return (2512, _testStruct, _owner);\r\n    }\r\n}\r\n",
  "sourcePath": "D:\\Documents\\Dev\\Repositories\\ethereum-interaction-tool\\EthereumTools\\EthereumTools\\src\\EthereumSmartContracts\\smartcontract-test\\contracts\\solidity-test.sol",
  "compiler": {
    "name": "solc",
    "version": "0.8.0+commit.c7dfd78e.Emscripten.clang"
  },
  "schemaVersion": "3.4.3",
  "updatedAt": "2022-04-05T22:42:53.108Z",
  "networkType": "ethereum",
  "devdoc": {
    "kind": "dev",
    "methods": {},
    "version": 1
  },
  "userdoc": {
    "kind": "user",
    "methods": {},
    "version": 1
  }
}