{
  "contractName": "SolidityTest",
  "abi": [
    {
      "inputs": [],
      "stateMutability": "nonpayable",
      "type": "constructor"
    },
    {
      "inputs": [],
      "name": "Counter",
      "outputs": [
        {
          "internalType": "uint256",
          "name": "",
          "type": "uint256"
        }
      ],
      "stateMutability": "view",
      "type": "function"
    },
    {
      "inputs": [],
      "name": "getOwner",
      "outputs": [
        {
          "internalType": "address",
          "name": "",
          "type": "address"
        }
      ],
      "stateMutability": "view",
      "type": "function"
    },
    {
      "inputs": [
        {
          "internalType": "uint256",
          "name": "_input",
          "type": "uint256"
        }
      ],
      "name": "returnUint256",
      "outputs": [
        {
          "internalType": "uint256",
          "name": "",
          "type": "uint256"
        }
      ],
      "stateMutability": "pure",
      "type": "function"
    },
    {
      "inputs": [
        {
          "internalType": "uint128",
          "name": "_input128Uint",
          "type": "uint128"
        }
      ],
      "name": "returnUint",
      "outputs": [
        {
          "internalType": "uint128",
          "name": "",
          "type": "uint128"
        }
      ],
      "stateMutability": "pure",
      "type": "function"
    },
    {
      "inputs": [],
      "name": "transferEtherToOwner",
      "outputs": [],
      "stateMutability": "payable",
      "type": "function"
    },
    {
      "inputs": [],
      "name": "getEthAmountOfOwner",
      "outputs": [
        {
          "internalType": "uint256",
          "name": "",
          "type": "uint256"
        }
      ],
      "stateMutability": "view",
      "type": "function"
    },
    {
      "inputs": [
        {
          "internalType": "string",
          "name": "input",
          "type": "string"
        }
      ],
      "name": "retunrKeccak256",
      "outputs": [
        {
          "internalType": "bytes32",
          "name": "",
          "type": "bytes32"
        }
      ],
      "stateMutability": "pure",
      "type": "function"
    },
    {
      "inputs": [],
      "name": "incrementCounter",
      "outputs": [],
      "stateMutability": "nonpayable",
      "type": "function"
    },
    {
      "inputs": [
        {
          "internalType": "bool",
          "name": "_bool",
          "type": "bool"
        }
      ],
      "name": "getBoolValue",
      "outputs": [
        {
          "internalType": "bool",
          "name": "",
          "type": "bool"
        }
      ],
      "stateMutability": "nonpayable",
      "type": "function"
    },
    {
      "inputs": [],
      "name": "getArrayOfUint256",
      "outputs": [
        {
          "internalType": "uint256[]",
          "name": "_arrayOfUint256",
          "type": "uint256[]"
        }
      ],
      "stateMutability": "view",
      "type": "function"
    },
    {
      "inputs": [],
      "name": "getArrayOfStructs",
      "outputs": [
        {
          "components": [
            {
              "internalType": "address",
              "name": "_address",
              "type": "address"
            },
            {
              "internalType": "uint256",
              "name": "_number",
              "type": "uint256"
            }
          ],
          "internalType": "struct SolidityTest.TestStruct[]",
          "name": "_arrayOfStructs",
          "type": "tuple[]"
        }
      ],
      "stateMutability": "view",
      "type": "function"
    },
    {
      "inputs": [
        {
          "internalType": "uint256[]",
          "name": "_arrayInput",
          "type": "uint256[]"
        }
      ],
      "name": "gerArrayAsInput",
      "outputs": [
        {
          "internalType": "uint256[]",
          "name": "_arrayResponse",
          "type": "uint256[]"
        }
      ],
      "stateMutability": "pure",
      "type": "function"
    },
    {
      "inputs": [
        {
          "components": [
            {
              "internalType": "address",
              "name": "_address",
              "type": "address"
            },
            {
              "internalType": "uint256",
              "name": "_number",
              "type": "uint256"
            }
          ],
          "internalType": "struct SolidityTest.TestStruct",
          "name": "_struct",
          "type": "tuple"
        }
      ],
      "name": "getStructAsParameter",
      "outputs": [
        {
          "components": [
            {
              "internalType": "address",
              "name": "_address",
              "type": "address"
            },
            {
              "internalType": "uint256",
              "name": "_number",
              "type": "uint256"
            }
          ],
          "internalType": "struct SolidityTest.TestStruct",
          "name": "_structResponse",
          "type": "tuple"
        }
      ],
      "stateMutability": "pure",
      "type": "function"
    },
    {
      "inputs": [
        {
          "components": [
            {
              "internalType": "address",
              "name": "_address",
              "type": "address"
            },
            {
              "internalType": "uint256",
              "name": "_number",
              "type": "uint256"
            }
          ],
          "internalType": "struct SolidityTest.TestStruct[]",
          "name": "_structArray",
          "type": "tuple[]"
        }
      ],
      "name": "getArrayOfSctructs",
      "outputs": [
        {
          "components": [
            {
              "internalType": "address",
              "name": "_address",
              "type": "address"
            },
            {
              "internalType": "uint256",
              "name": "_number",
              "type": "uint256"
            }
          ],
          "internalType": "struct SolidityTest.TestStruct[]",
          "name": "_structResponse",
          "type": "tuple[]"
        }
      ],
      "stateMutability": "pure",
      "type": "function"
    },
    {
      "inputs": [],
      "name": "getStringAsRespone",
      "outputs": [
        {
          "internalType": "string",
          "name": "",
          "type": "string"
        }
      ],
      "stateMutability": "pure",
      "type": "function"
    },
    {
      "inputs": [
        {
          "internalType": "bytes32",
          "name": "_request",
          "type": "bytes32"
        }
      ],
      "name": "getBytes32AsResponse",
      "outputs": [
        {
          "internalType": "bytes32",
          "name": "response",
          "type": "bytes32"
        }
      ],
      "stateMutability": "pure",
      "type": "function"
    }
  ],
  "bytecode": "0x608060405234801561001057600080fd5b50336000806101000a81548173ffffffffffffffffffffffffffffffffffffffff021916908373ffffffffffffffffffffffffffffffffffffffff16021790555060018080600181540180825580915050600190039060005260206000200160009091909190915055600160029080600181540180825580915050600190039060005260206000200160009091909190915055600160039080600181540180825580915050600190039060005260206000200160009091909190915055600260405180604001604052803373ffffffffffffffffffffffffffffffffffffffff168152602001678ac7230489e80000815250908060018154018082558091505060019003906000526020600020906002020160009091909190915060008201518160000160006101000a81548173ffffffffffffffffffffffffffffffffffffffff021916908373ffffffffffffffffffffffffffffffffffffffff160217905550602082015181600101555050600260405180604001604052803373ffffffffffffffffffffffffffffffffffffffff168152602001678ac7230489e80000815250908060018154018082558091505060019003906000526020600020906002020160009091909190915060008201518160000160006101000a81548173ffffffffffffffffffffffffffffffffffffffff021916908373ffffffffffffffffffffffffffffffffffffffff16021790555060208201518160010155505061112b8061023e6000396000f3fe6080604052600436106100f35760003560e01c8063893d20e81161008a5780639e074abc116100595780639e074abc14610321578063a009309d1461035e578063ac9d20bd1461039b578063cb5f76b6146103d8576100f3565b8063893d20e8146102725780638f0fcf071461029d5780639779cdeb146102da5780639850b5f6146102e4576100f3565b806349ffb514116100c657806349ffb514146101c85780634eeca076146101f357806359adb2df1461021e5780635b34b9661461025b576100f3565b8063067a3f94146100f857806319fbb99314610123578063225a57d21461014e5780633b693e301461018b575b600080fd5b34801561010457600080fd5b5061010d610403565b60405161011a9190610d53565b60405180910390f35b34801561012f57600080fd5b5061013861045b565b6040516101459190610d31565b60405180910390f35b34801561015a57600080fd5b5061017560048036038101906101709190610a86565b61051a565b6040516101829190610dcd565b60405180910390f35b34801561019757600080fd5b506101b260048036038101906101ad91906109f3565b61053a565b6040516101bf9190610d75565b60405180910390f35b3480156101d457600080fd5b506101dd610541565b6040516101ea9190610e03565b60405180910390f35b3480156101ff57600080fd5b50610208610581565b6040516102159190610e03565b60405180910390f35b34801561022a57600080fd5b5061024560048036038101906102409190610b01565b610587565b6040516102529190610e03565b60405180910390f35b34801561026757600080fd5b50610270610591565b005b34801561027e57600080fd5b506102876105ad565b6040516102949190610d16565b60405180910390f35b3480156102a957600080fd5b506102c460048036038101906102bf91906109ae565b6105d6565b6040516102d19190610d53565b60405180910390f35b6102e2610622565b005b3480156102f057600080fd5b5061030b60048036038101906103069190610ad8565b61068b565b6040516103189190610de8565b60405180910390f35b34801561032d57600080fd5b5061034860048036038101906103439190610a1c565b610695565b6040516103559190610d90565b60405180910390f35b34801561036a57600080fd5b5061038560048036038101906103809190610a45565b61069f565b6040516103929190610d90565b60405180910390f35b3480156103a757600080fd5b506103c260048036038101906103bd9190610969565b6106cf565b6040516103cf9190610d31565b60405180910390f35b3480156103e457600080fd5b506103ed610730565b6040516103fa9190610dab565b60405180910390f35b6060600180548060200260200160405190810160405280929190818152602001828054801561045157602002820191906000526020600020905b81548152602001906001019080831161043d575b5050505050905090565b60606002805480602002602001604051908101604052809291908181526020016000905b8282101561051157838290600052602060002090600202016040518060400160405290816000820160009054906101000a900473ffffffffffffffffffffffffffffffffffffffff1673ffffffffffffffffffffffffffffffffffffffff1673ffffffffffffffffffffffffffffffffffffffff1681526020016001820154815250508152602001906001019061047f565b50505050905090565b61052261076d565b818036038101906105339190610aaf565b9050919050565b6000919050565b60008060009054906101000a900473ffffffffffffffffffffffffffffffffffffffff1673ffffffffffffffffffffffffffffffffffffffff1631905090565b60035481565b6000819050919050565b6001600360008282546105a49190610f0d565b92505081905550565b60008060009054906101000a900473ffffffffffffffffffffffffffffffffffffffff16905090565b6060828280806020026020016040519081016040528093929190818152602001838360200280828437600081840152601f19601f82011690508083019250505050505050905092915050565b60008054906101000a900473ffffffffffffffffffffffffffffffffffffffff1673ffffffffffffffffffffffffffffffffffffffff166108fc349081150290604051600060405180830381858888f19350505050158015610688573d6000803e3d6000fd5b50565b6000819050919050565b6000819050919050565b6000816040516020016106b29190610dab565b604051602081830303815290604052805190602001209050919050565b60608282808060200260200160405190810160405280939291908181526020016000905b82821015610723578484839050604002018036038101906107149190610aaf565b815260200190600101906106f3565b5050505050905092915050565b60606040518060400160405280601281526020017f526573706f6e736520617320537472696e670000000000000000000000000000815250905090565b6040518060400160405280600073ffffffffffffffffffffffffffffffffffffffff168152602001600081525090565b60006107b06107ab84610e4f565b610e1e565b9050828152602081018484840111156107c857600080fd5b6107d3848285610fd1565b509392505050565b6000813590506107ea81611082565b92915050565b60008083601f84011261080257600080fd5b8235905067ffffffffffffffff81111561081b57600080fd5b60208301915083604082028301111561083357600080fd5b9250929050565b60008083601f84011261084c57600080fd5b8235905067ffffffffffffffff81111561086557600080fd5b60208301915083602082028301111561087d57600080fd5b9250929050565b60008135905061089381611099565b92915050565b6000813590506108a8816110b0565b92915050565b600082601f8301126108bf57600080fd5b81356108cf84826020860161079d565b91505092915050565b6000604082840312156108ea57600080fd5b81905092915050565b60006040828403121561090557600080fd5b61090f6040610e1e565b9050600061091f848285016107db565b600083015250602061093384828501610954565b60208301525092915050565b60008135905061094e816110c7565b92915050565b600081359050610963816110de565b92915050565b6000806020838503121561097c57600080fd5b600083013567ffffffffffffffff81111561099657600080fd5b6109a2858286016107f0565b92509250509250929050565b600080602083850312156109c157600080fd5b600083013567ffffffffffffffff8111156109db57600080fd5b6109e78582860161083a565b92509250509250929050565b600060208284031215610a0557600080fd5b6000610a1384828501610884565b91505092915050565b600060208284031215610a2e57600080fd5b6000610a3c84828501610899565b91505092915050565b600060208284031215610a5757600080fd5b600082013567ffffffffffffffff811115610a7157600080fd5b610a7d848285016108ae565b91505092915050565b600060408284031215610a9857600080fd5b6000610aa6848285016108d8565b91505092915050565b600060408284031215610ac157600080fd5b6000610acf848285016108f3565b91505092915050565b600060208284031215610aea57600080fd5b6000610af88482850161093f565b91505092915050565b600060208284031215610b1357600080fd5b6000610b2184828501610954565b91505092915050565b6000610b368383610c8b565b60408301905092915050565b6000610b4e8383610cf8565b60208301905092915050565b610b6381610f63565b82525050565b610b7281610f63565b82525050565b6000610b8382610e9f565b610b8d8185610eda565b9350610b9883610e7f565b8060005b83811015610bc9578151610bb08882610b2a565b9750610bbb83610ec0565b925050600181019050610b9c565b5085935050505092915050565b6000610be182610eaa565b610beb8185610eeb565b9350610bf683610e8f565b8060005b83811015610c27578151610c0e8882610b42565b9750610c1983610ecd565b925050600181019050610bfa565b5085935050505092915050565b610c3d81610f75565b82525050565b610c4c81610f81565b82525050565b6000610c5d82610eb5565b610c678185610efc565b9350610c77818560208601610fe0565b610c8081611071565b840191505092915050565b604082016000820151610ca16000850182610b5a565b506020820151610cb46020850182610cf8565b50505050565b604082016000820151610cd06000850182610b5a565b506020820151610ce36020850182610cf8565b50505050565b610cf281610f8b565b82525050565b610d0181610fc7565b82525050565b610d1081610fc7565b82525050565b6000602082019050610d2b6000830184610b69565b92915050565b60006020820190508181036000830152610d4b8184610b78565b905092915050565b60006020820190508181036000830152610d6d8184610bd6565b905092915050565b6000602082019050610d8a6000830184610c34565b92915050565b6000602082019050610da56000830184610c43565b92915050565b60006020820190508181036000830152610dc58184610c52565b905092915050565b6000604082019050610de26000830184610cba565b92915050565b6000602082019050610dfd6000830184610ce9565b92915050565b6000602082019050610e186000830184610d07565b92915050565b6000604051905081810181811067ffffffffffffffff82111715610e4557610e44611042565b5b8060405250919050565b600067ffffffffffffffff821115610e6a57610e69611042565b5b601f19601f8301169050602081019050919050565b6000819050602082019050919050565b6000819050602082019050919050565b600081519050919050565b600081519050919050565b600081519050919050565b6000602082019050919050565b6000602082019050919050565b600082825260208201905092915050565b600082825260208201905092915050565b600082825260208201905092915050565b6000610f1882610fc7565b9150610f2383610fc7565b9250827fffffffffffffffffffffffffffffffffffffffffffffffffffffffffffffffff03821115610f5857610f57611013565b5b828201905092915050565b6000610f6e82610fa7565b9050919050565b60008115159050919050565b6000819050919050565b60006fffffffffffffffffffffffffffffffff82169050919050565b600073ffffffffffffffffffffffffffffffffffffffff82169050919050565b6000819050919050565b82818337600083830152505050565b60005b83811015610ffe578082015181840152602081019050610fe3565b8381111561100d576000848401525b50505050565b7f4e487b7100000000000000000000000000000000000000000000000000000000600052601160045260246000fd5b7f4e487b7100000000000000000000000000000000000000000000000000000000600052604160045260246000fd5b6000601f19601f8301169050919050565b61108b81610f63565b811461109657600080fd5b50565b6110a281610f75565b81146110ad57600080fd5b50565b6110b981610f81565b81146110c457600080fd5b50565b6110d081610f8b565b81146110db57600080fd5b50565b6110e781610fc7565b81146110f257600080fd5b5056fea2646970667358221220718d602b4750a0e9d12ef37d0fc889d22f30f36ec939327e0c401159fc10bad464736f6c63430008000033",
  "immutableReferences": {},
  "source": "pragma solidity ^0.8.0;\r\n\r\ncontract SolidityTest {\r\n    address payable private _owner;\r\n    uint256[] private _arrayWithUint256;\r\n\r\n    TestStruct[] private _testStructArray;\r\n\r\n    struct TestStruct {\r\n        address _address;\r\n        uint256 _number;\r\n    }\r\n\r\n    constructor() {\r\n        _owner = payable(msg.sender);\r\n        _arrayWithUint256.push(1);\r\n        _arrayWithUint256.push(2);\r\n        _arrayWithUint256.push(3);\r\n        _testStructArray.push(TestStruct(msg.sender, 10 * 10**18));\r\n        _testStructArray.push(TestStruct(msg.sender, 10 * 10**18));\r\n    }\r\n\r\n    uint256 public Counter;\r\n\r\n    function getOwner() public view returns (address) {\r\n        return _owner;\r\n    }\r\n\r\n    function returnUint256(uint256 _input) public pure returns (uint256) {\r\n        return _input;\r\n    }\r\n\r\n    function returnUint(uint128 _input128Uint) public pure returns (uint128) {\r\n        return _input128Uint;\r\n    }\r\n\r\n    function transferEtherToOwner() public payable {\r\n        _owner.transfer(msg.value);\r\n    }\r\n\r\n    function getEthAmountOfOwner() public view returns (uint256) {\r\n        return address(_owner).balance;\r\n    }\r\n\r\n    function retunrKeccak256(string memory input)\r\n        public\r\n        pure\r\n        returns (bytes32)\r\n    {\r\n        return keccak256(abi.encode(input));\r\n    }\r\n\r\n    function incrementCounter() public {\r\n        Counter += 1;\r\n    }\r\n\r\n    function getBoolValue(bool _bool) public returns (bool) {}\r\n\r\n    function getArrayOfUint256()\r\n        public\r\n        view\r\n        returns (uint256[] memory _arrayOfUint256)\r\n    {\r\n        return _arrayWithUint256;\r\n    }\r\n\r\n    function getArrayOfStructs()\r\n        public\r\n        view\r\n        returns (TestStruct[] memory _arrayOfStructs)\r\n    {\r\n        return _testStructArray;\r\n    }\r\n\r\n    function gerArrayAsInput(uint256[] calldata _arrayInput)\r\n        public\r\n        pure\r\n        returns (uint256[] memory _arrayResponse)\r\n    {\r\n        return _arrayInput;\r\n    }\r\n\r\n    function getStructAsParameter(TestStruct calldata _struct)\r\n        public\r\n        pure\r\n        returns (TestStruct memory _structResponse)\r\n    {\r\n        return _struct;\r\n    }\r\n\r\n    function getArrayOfSctructs(TestStruct[] calldata _structArray)\r\n        public\r\n        pure\r\n        returns (TestStruct[] memory _structResponse)\r\n    {\r\n        return _structArray;\r\n    }\r\n\r\n    function getStringAsRespone() public pure returns (string memory) {\r\n        return \"Response as String\";\r\n    }\r\n\r\n    function getBytes32AsResponse(bytes32 _request)\r\n        public\r\n        pure\r\n        returns (bytes32 response)\r\n    {\r\n        return _request;\r\n    }\r\n}\r\n",
  "sourcePath": "D:\\Documents\\Dev\\Repositories\\ethereum-interaction-tool\\EthereumTools\\EthereumTools\\src\\EthereumSmartContracts\\smartcontract-test\\contracts\\solidity-test.sol",
  "compiler": {
    "name": "solc",
    "version": "0.8.0+commit.c7dfd78e.Emscripten.clang"
  },
  "schemaVersion": "3.4.3",
  "updatedAt": "2022-03-29T10:25:17.691Z",
  "devdoc": {
    "kind": "dev",
    "methods": {},
    "version": 1
  },
  "userdoc": {
    "kind": "user",
    "methods": {},
    "version": 1
  }
}